:100000000C942A000C94040A0C942B0A0C94520AA7
:100010000C9447000C94AE080C9447000C944700D5
:100020000C9447000C9447000C945F080C94470014
:100030000C9447000C9447000C9447000C94470024
:100040000C9447000C9447000C9447000C94470014
:100050000C94470011241FBECFE5D8E0DEBFCDBF12
:1000600011E0A8E6B1E001C01D92A839B107E1F79F
:1000700011E0A0E6B0E0E8E2F6E202C005900D92E1
:10008000A836B107D9F70E94D0110C9412130C9422
:100090000000EF92FF920F931F937B018C0120E0F1
:1000A00030E040E05FE40E94F50388238CF0C80153
:1000B000B70120E030E040E05FE40E94C1010E940F
:1000C00025049B01AC01205030404040504806C000
:1000D000C801B7010E9425049B01AC01B901CA0106
:1000E0001F910F91FF90EF900895A0E0B0E0EBE733
:1000F000F0E00C94DB12DC012B01FA019C919230B0
:1001000008F439C1EB018881823008F433C194309E
:1001100069F4843009F02FC111969C91119789815F
:10012000981709F428C1A0E6B0E025C1843009F48D
:1001300021C18230A9F4923009F01DC19A01AD01AC
:1001400088E0EA010990AE01E90109929E0181501F
:10015000C1F7E201898111969C918923818308C1AD
:10016000923009F407C112962D903C901397EB0141
:100170008A819B811496AD90BD90CD90DC901797AD
:10018000EC80FD800E811F819101281B390BB90184
:1001900037FF04C066277727621B730B6032710537
:1001A0000CF061C0121613066CF537014801062EDB
:1001B00004C096948794779467940A94D2F721E0C8
:1001C00030E040E050E004C0220F331F441F551FB1
:1001D0006A95D2F721503040404050402E213F21B7
:1001E00040235123211531054105510521F021E01E
:1001F00030E040E050E079018A01E628F72808293C
:1002000019293CC0232BD1F1260E371E350146019A
:10021000062E04C096948794779467940A94D2F734
:1002200021E030E040E050E004C0220F331F441FC3
:10023000551F6A95D2F721503040404050402A2146
:100240003B214C215D21211531054105510521F04E
:1002500021E030E040E050E059016A01A628B728CB
:10026000C828D9280BC0821593052CF01C01AA249C
:10027000BB24650103C0EE24FF24870111969C91E5
:10028000D20111968C91981709F445C0992339F041
:10029000A80197012A193B094C095D0906C0A6016E
:1002A00095012E193F09400B510B57FD08C01182D3
:1002B0003382228224833583468357831DC081E0A5
:1002C00081833382228288279927DC01821B930B4A
:1002D000A40BB50B84839583A683B7830DC0220F2F
:1002E000331F441F551F24833583468357838281E0
:1002F000938101979383828324813581468157813D
:10030000DA01C9010197A109B1098F5F9F4FAF4F72
:10031000BF4328F30BC0918333822282EA0CFB1C7B
:100320000C1D1D1DE482F5820683178383E0808304
:10033000248135814681578157FF1AC0C901AA27F8
:1003400097FDA095BA2F81709070A070B0705695EF
:10035000479537952795822B932BA42BB52B848318
:100360009583A683B7838281938101969383828349
:10037000DF0101C0D201CD01CDB7DEB7E2E10C94BF
:10038000F712A0E2B0E0E7ECF1E00C94E712698329
:100390007A838B839C832D833E834F835887E9E048
:1003A000EE2EF12CEC0EFD1ECE010196B7010E943F
:1003B00016068E010F5E1F4FCE010596B8010E94F2
:1003C00016068A8991E089278A8BC701B801AE0198
:1003D000475E5F4F0E9475000E944105A096E6E0CF
:1003E0000C940313A0E2B0E0E8EFF1E00C94E71204
:1003F00069837A838B839C832D833E834F835887C5
:10040000F9E0EF2EF12CEC0EFD1ECE010196B701A6
:100410000E9416068E010F5E1F4FCE010596B80191
:100420000E941606C701B801AE01475E5F4F0E94E9
:1004300075000E944105A096E6E00C940313A0E22B
:10044000B0E0E5E2F2E00C94DB1269837A838B83FF
:100450009C832D833E834F835887CE010196BE0136
:10046000675F7F4F0E941606CE010596BE016F5E44
:100470007F4F0E9416069985923088F089898230D4
:10048000C8F0943019F4823051F404C0843029F457
:10049000923081F480E690E0C6C0923049F420E0CA
:1004A0009A858A89981321E02A87CE010996BBC0D4
:1004B000823049F420E09A858A89981321E02A8BBA
:1004C000CE014196B0C02D843E844F8458886D88FB
:1004D0007E888F88988CEE24FF248701AA24BB2471
:1004E000650140E050E060E070E0E0E0F0E0C10174
:1004F00081709070892BE9F0E60CF71C081D191D1E
:100500009A01AB012A0D3B1D4C1D5D1D80E090E062
:10051000A0E0B0E0E614F7040805190520F481E036
:1005200090E0A0E0B0E0BA01A901480F591F6A1F8E
:100530007B1FAA0CBB1CCC1CDD1C97FE08C081E0F5
:1005400090E0A0E0B0E0A82AB92ACA2ADB2A3196B6
:10055000E032F10549F0660C771C881C991C569412
:10056000479437942794C3CFFA85EA892B893C892D
:100570008B859C85280F391F2E5F3F4F17C0CA01FE
:1005800081709070892B61F016950795F794E79428
:1005900080E090E0A0E0B0E8E82AF92A0A2B1B2BC3
:1005A00076956795579547952F5F3F4F77FDE7CF36
:1005B0000CC0440F551F661F771F17FD4160EE0CDE
:1005C000FF1C001F111F21503040403090E05907A0
:1005D00090E0690790E4790760F32B8F3C8FDB0193
:1005E000CA018F779070A070B07080349105A1051A
:1005F000B10561F447FD0AC0E114F10401051105DC
:1006000029F0405C5F4F6F4F7F4F40781A8EFE1786
:1006100011F081E08A8F4D8F5E8F6F8F78A383E01A
:10062000898FCE0149960E944105A096E2E10C9483
:10063000F712A8E1B0E0EFE1F3E00C94E312698374
:100640007A838B839C832D833E834F835887B9E0C5
:10065000EB2EF12CEC0EFD1ECE010196B7010E948F
:1006600016068E010F5E1F4FCE010596B8010E943F
:1006700016062985223008F47EC03989323010F4FC
:10068000B8017CC08A859A8989278A87243011F02D
:10069000223031F4231709F06EC060E670E06EC0BE
:1006A000343039F41D861E861F86188A1C861B86E8
:1006B00004C0323021F484E08987B7015FC02B8504
:1006C0003C858B899C89281B390B3C872B87ED84C3
:1006D000FE840F851889AD88BE88CF88D88CEA142F
:1006E000FB040C051D0540F4EE0CFF1C001F111F40
:1006F000215030403C872B8720E030E040E050E044
:1007000080E090E0A0E0B0E460E070E0EA14FB0478
:100710000C051D0540F0282B392B4A2B5B2BEA18C2
:10072000FB080C091D09B695A79597958795EE0CC2
:10073000FF1C001F111F6F5F7F4F6F31710531F775
:10074000DA01C9018F779070A070B0708034910584
:10075000A105B10561F427FD0AC0E114F10401050A
:10076000110529F0205C3F4F4F4F5F4F20782D87B8
:100770003E874F87588BBE01675F7F4FCB010E943A
:1007800041056896EAE00C94FF12A8E1B0E0EBECBA
:10079000F3E00C94E71269837A838B839C832D8327
:1007A0003E834F83588789E0E82EF12CEC0EFD1E26
:1007B000CE010196B7010E9416068E010F5E1F4FF3
:1007C000CE010596B8010E9416068985823040F058
:1007D0008989823028F0C701B8010E948E0601C0C5
:1007E00081E06896E6E00C940313A8E1B0E0EBEF3B
:1007F000F3E00C94E71269837A838B839C832D83C7
:100800003E834F83588789E0E82EF12CEC0EFD1EC5
:10081000CE010196B7010E9416068E010F5E1F4F92
:10082000CE010596B8010E9416068985823040F0F7
:100830008989823028F0C701B8010E948E0601C064
:100840008FEF6896E6E00C940313ACE0B0E0EBE2C7
:10085000F4E00C94EB1269837A838B839C83CE0142
:100860000196BE016B5F7F4F0E9416068D8182301C
:1008700061F1823050F1843021F48E81882351F16E
:100880002EC02F81388537FD20C06E812F31310574
:100890001CF06623F9F023C08EE190E0821B930BDD
:1008A00029853A854B855C8504C0569547953795D3
:1008B00027958A95D2F76623B1F0509540953095EB
:1008C00021953F4F4F4F5F4F0EC020E030E040E09A
:1008D00050E009C02FEF3FEF4FEF5FE704C020E08B
:1008E00030E040E050E8B901CA012C96E2E00C94F7
:1008F0000713A8E0B0E0EFE7F4E00C94E3127B010B
:100900008C01611571058105910519F482E08983D7
:1009100060C083E089838EE1C82ED12CDC82CB823B
:10092000ED82FE820F831887C801B7010E94F2048E
:10093000FC013197F7FF3BC0222733272E1B3F0BCB
:1009400057016801022E04C0D694C794B794A794A7
:100950000A94D2F740E050E060E070E081E090E07F
:10096000A0E0B0E004C0880F991FAA1FBB1F2A9502
:10097000D2F70197A109B1098E219F21A023B123AC
:100980000097A105B10521F041E050E060E070E082
:100990004A295B296C297D294D835E836F83788783
:1009A0008EE190E08E1B9F0B9C838B8312C030974F
:1009B00081F00E2E04C0EE0CFF1C001F111F0A94C4
:1009C000D2F7ED82FE820F831887CE1ADF0ADC820F
:1009D000CB821A82CE0101960E9441052896EAE058
:1009E0000C94FF12EF92FF920F931F937B018C01E7
:1009F00080E0E81680E0F80681E0080780E018074C
:100A000088F48FEFE816F1040105110531F028F0A4
:100A100088E090E0A0E0B0E017C080E090E0A0E0C7
:100A2000B0E012C080E0E81680E0F80680E0080739
:100A300081E0180728F088E190E0A0E0B0E004C071
:100A400080E190E0A0E0B0E020E230E040E050E063
:100A5000281B390B4A0B5B0B04C016950795F794BE
:100A6000E7948A95D2F7F701E859FF4F8081281B58
:100A7000310941095109C9011F910F91FF90EF9070
:100A80000895DF92EF92FF920F931F93FC01E48091
:100A9000F58006811781D1808081823048F480E022
:100AA00090E0A0E1B0E0E82AF92A0A2B1B2BA5C0B0
:100AB000843009F49FC0823021F4EE24FF248701A2
:100AC00005C0E114F1040105110519F4E0E0F0E0BE
:100AD00096C0628173819FEF623879070CF05BC02A
:100AE00022E83FEF261B370B2A3131052CF020E09E
:100AF00030E040E050E02AC0B801A701022E04C057
:100B000076956795579547950A94D2F781E090E0DE
:100B1000A0E0B0E004C0880F991FAA1FBB1F2A9550
:100B2000D2F70197A109B1098E219F21A023B123FA
:100B30000097A105B10521F081E090E0A0E0B0E0D0
:100B40009A01AB01282B392B4A2B5B2BDA01C90107
:100B50008F779070A070B07080349105A105B105B9
:100B600039F427FF09C0205C3F4F4F4F5F4F04C04F
:100B7000215C3F4F4F4F5F4FE0E0F0E02030A0E0BE
:100B80003A07A0E04A07A0E45A0710F0E1E0F0E0DD
:100B900079018A0127C06038710564F5FB01E158CD
:100BA000FF4FD801C7018F779070A070B07080346C
:100BB0009105A105B10539F4E7FE0DC080E490E090
:100BC000A0E0B0E004C08FE390E0A0E0B0E0E80E69
:100BD000F91E0A1F1B1F17FF05C016950795F794EE
:100BE000E794319687E016950795F794E7948A95F0
:100BF000D1F705C0EE24FF248701EFEFF0E06E2F60
:100C0000679566276795902F9F77D794DD24D794B3
:100C10008E2F8695492F462B582F5D29B701CA0183
:100C20001F910F91FF90EF90DF900895FC01DB0181
:100C3000408151812281622F6F7770E0221F22272D
:100C4000221F9381892F880F822B282F30E0991F34
:100C50009927991F11969C93119721153105A9F594
:100C6000411551056105710511F482E037C082E834
:100C70009FEF13969C938E9312979A01AB0167E0B6
:100C8000220F331F441F551F6A95D1F783E08C93C1
:100C90000DC0220F331F441F551F12968D919C913A
:100CA0001397019713969C938E931297203080E0B0
:100CB000380780E0480780E4580758F314962D93CE
:100CC0003D934D935C93179708952F3F310579F429
:100CD000411551056105710519F484E08C9308955F
:100CE00064FF03C081E08C9312C01C9210C02F5788
:100CF000304013963C932E93129783E08C9387E0B9
:100D0000440F551F661F771F8A95D1F7706414969C
:100D10004D935D936D937C93179708951F93DC011A
:100D2000FB019C91923008F447C08081823008F426
:100D300043C0943051F411961C91843099F581810F
:100D4000682F70E0611B71093FC0843021F0923040
:100D500031F48230B9F18181882389F12DC0119657
:100D60001C9111978230F1F081811817D9F41296F5
:100D70002D913C911397828193818217930794F070
:100D800028173907BCF014968D919D910D90BC9158
:100D9000A02D2481358146815781281739074A07BC
:100DA0005B0718F4112341F00AC082179307A407C8
:100DB000B50740F4112319F061E070E005C06FEF52
:100DC0007FEF02C060E070E0CB011F91089588239F
:100DD00019F08230E1F40EC0E3E5F0E080818F7B12
:100DE0008083808188608083E9E5F0E08081826093
:100DF00080830895E5E4F0E08081877F80838081AF
:100E00008F7B8083E9E5F0E08081806480830895B2
:100E10009F92AF92BF92CF92DF92EF92FF920F9389
:100E20001F93182FCB01BA0128EE33E040E050E0C9
:100E30000E9473125B016C01689415F8D694C794F4
:100E4000B794A7941694D1F7112321F0123009F02A
:100E50005DC03EC0C601B5012FEF30E040E050E07C
:100E60000E949E12611571058105910569F499240E
:100E70009A940F2EFFEFEF2EF0E0FF2EF0E00F2FF1
:100E8000F0E01F2FF02D12C099249A949A94E92C27
:100E9000FF2400E010E0C601B501A80197010E94FF
:100EA0009E12611571058105910581F7C601B50195
:100EB000A80197010E949E12209371013093720144
:100EC0004093730150937401892D81508CBF1EC0D3
:100ED00055274D2D3C2D2B2D20936C0130936D010A
:100EE00040936E0150936F018A2DAA2079F081956D
:100EF00084BDDA01C9010196A11DB11D80936C0169
:100F000090936D01A0936E01B0936F011F910F91AB
:100F1000FF90EF90DF90CF90BF90AF909F9008959B
:100F2000813089F0813018F0823021F518C0E3E576
:100F3000F0E080818160808380818D7F80838081EB
:100F4000846080830895EEE4F0E080818E7F80836A
:100F500080818D7F80838081846080830895E5E433
:100F6000F0E08081846080838081826080838081E2
:100F700081608083089514BC813089F0813018F03D
:100F8000823021F518C0E3E5F0E080818E7F808318
:100F900080818D7F808380818B7F80830895EEE4C4
:100FA000F0E080818E7F808380818D7F808380814F
:100FB0008B7F80830895E5E4F0E080818B7F8083E0
:100FC00080818D7F808380818E7F80830895EF92E2
:100FD000FF920F931F937A018B01882321F08130B8
:100FE00009F03FC024C0CB01BA0120E030E040E06E
:100FF00050E00E94C503882311F41CBE32C0C80112
:10100000B70120E030E040E853E40E941F0220E0F6
:1010100030E048EC52E40E94190320E030E040E860
:101020005FE30E94C1010E9449006CBF1AC066B50F
:1010300077B580E090E00E947904A80197010E94B2
:101040001F0220E030E048EC52E40E94190320E047
:1010500030E040E85FE30E94C1010E9449007BBD8F
:101060006ABD1F910F91FF90EF900895282F30E0F7
:1010700040E050E064E274EF80E090E00E94C01233
:1010800037BD26BD08950E94900708950E94BB07B2
:101090000895813051F0813018F0823079F40AC01F
:1010A000709389016093880108957093870160931C
:1010B00086010895709385016093840108951F92BD
:1010C0000F920FB60F9211242F933F934F935F937C
:1010D0006F937F938F939F93AF93BF93EF93FF9300
:1010E0008091790190917A01A0917B01B0917C016E
:1010F0000196A11DB11D8093790190937A01A0936F
:101100007B01B0937C01209171013091720140917B
:1011100073015091740182179307A407B50769F40E
:10112000E0918801F091890109951092790110925E
:101130007A0110927B0110927C01FF91EF91BF9197
:10114000AF919F918F917F916F915F914F913F915F
:101150002F910F900FBE0F901F9018951F920F9216
:101160000FB60F9211242F933F934F935F936F937A
:101170007F938F939F93AF93BF93EF93FF93809150
:10118000750190917601A0917701B0917801019657
:10119000A11DB11D8093750190937601A0937701F5
:1011A000B093780120916C0130916D0140916E01F6
:1011B00050916F0182179307A407B50789F4E09156
:1011C0008401F0918501099580917001819584BD1C
:1011D00010927501109276011092770110927801A9
:1011E000FF91EF91BF91AF919F918F917F916F91FF
:1011F0005F914F913F912F910F900FBE0F901F90D5
:101200001895882319F0813071F513C087E161E0EA
:101210000E945C0AE3E5F0E0808180648083808145
:101220008860808380818F7E8083808180628083DC
:1012300008958DE261E00E945C0AAFE4B0E08C9119
:101240008E7F8C938C9182608C93EEE4F0E08081B1
:10125000886080838081806180838C918F7B8C9378
:101260008C9180688C9308958CE080B9E6E5F0E07D
:101270008081846080830895E6E5F0E0808180626B
:10128000808380818068808380818823ECF7E1E21D
:10129000F0E08081887F8830E1F70895E6E5F0E0AE
:1012A0008081806180838081806880830895E6E505
:1012B000F0E080818062808380818068808380818B
:1012C0008823ECF7E1E2F0E08081887F8031E1F76C
:1012D0000895880F816083B9E6E5F0E080818F7D15
:1012E000808380818068808380818823ECF7E1E2BD
:1012F000F0E08081887F8034E1F7089583B9E6E5E6
:10130000F0E080818F7D8083808180688083808110
:101310008823ECF7E1E2F0E08081887F8832E1F712
:101320000895E6E5F0E080818F7D80838081806490
:10133000808380818068808380818823ECF7E1E26C
:10134000F0E08081887F8035E1F783B10895880FD0
:1013500083B9E6E5F0E0808180688083808188231E
:10136000ECF7E1E2F0E08081887F8831E1F781E00D
:101370000E94460F0895EFE5F0E080818068808349
:101380000895EFE5F0E080818F77808308958130C4
:1013900099F0813018F0823039F51CC0E5E5F0E0B5
:1013A000808181608083808182608083EBE5F0E0D2
:1013B0008081806480830895E5E5F0E08081846029
:1013C0008083808188608083EBE5F0E080818068A5
:1013D00080830895E4E5F0E0808180648083EBE51C
:1013E000F0E08081806280830895882319F0813045
:1013F00051F405C070938D0160938C010895709332
:101400008B0160938A0108951F920F920FB60F927D
:1014100011242F933F934F935F936F937F938F93F9
:101420009F93AF93BF93EF93FF93E0918C01F09163
:101430008D010995FF91EF91BF91AF919F918F9190
:101440007F916F915F914F913F912F910F900FBEC0
:101450000F901F9018951F920F920FB60F921124A4
:101460002F933F934F935F936F937F938F939F93AC
:10147000AF93BF93EF93FF93E0918A01F0918B01BB
:101480000995FF91EF91BF91AF919F918F917F91BE
:101490006F915F914F913F912F910F900FBE0F90E1
:1014A0001F9018951F920F920FB60F9211240F9054
:1014B0000FBE0F901F901895282F362F6AE00E94BC
:1014C0009212492F822F0E949212332321F0313041
:1014D00009F086C046C08230D1F0833020F48130DC
:1014E00009F07EC006C0833001F1843009F078C075
:1014F0002AC0EAE3F0E0208181E090E002C0880F9A
:10150000991F4A95E2F78095822380830895E7E347
:10151000F0E0208181E090E002C0880F991F4A9599
:10152000E2F78095822380830895E4E3F0E0208150
:1015300081E090E002C0880F991F4A95E2F78095FC
:10154000822380830895E1E3F0E0208181E090E050
:1015500002C0880F991F4A95E2F780958223808305
:1015600008958230B9F0833018F48130C9F505C090
:101570008330E9F08430A1F527C0EAE3F0E0208170
:1015800081E090E002C0880F991F4A95E2F7282B6E
:1015900020830895E7E3F0E0208181E090E002C03D
:1015A000880F991F4A95E2F7282B20830895E4E3DA
:1015B000F0E0208181E090E002C0880F991F4A95F9
:1015C000E2F7282B20830895E1E3F0E0208181E019
:1015D00090E002C0880F991F4A95E2F7282B2083DC
:1015E0000895282F362F6AE00E949212492F822FE9
:1015F0000E949212332321F0313009F086C046C098
:101600008230D1F0833020F4813009F07EC006C0F2
:10161000833001F1843009F078C02AC0EBE3F0E0B8
:10162000208181E090E002C0880F991F4A95E2F77F
:101630008095822380830895E8E3F0E0208181E0B3
:1016400090E002C0880F991F4A95E2F780958223A7
:1016500080830895E5E3F0E0208181E090E002C01E
:10166000880F991F4A95E2F7809582238083089519
:10167000E2E3F0E0208181E090E002C0880F991F52
:101680004A95E2F780958223808308958230B9F0ED
:10169000833018F48130C9F505C08330E9F0843017
:1016A000A1F527C0EBE3F0E0208181E090E002C0EB
:1016B000880F991F4A95E2F7282B20830895E8E3C5
:1016C000F0E0208181E090E002C0880F991F4A95E8
:1016D000E2F7282B20830895E5E3F0E0208181E004
:1016E00090E002C0880F991F4A95E2F7282B2083CB
:1016F0000895E2E3F0E0208181E090E002C0880FED
:10170000991F4A95E2F7282B20830895282F6AE035
:101710000E949212392F822F0E9492128230B9F0C9
:10172000833018F48130C9F505C08330E9F0843086
:10173000A1F527C0EBE3F0E0208181E090E002C05A
:10174000880F991F3A95E2F7282720830895E8E348
:10175000F0E0208181E090E002C0880F991F3A9567
:10176000E2F7282720830895E5E3F0E0208181E077
:1017700090E002C0880F991F3A95E2F7282720834E
:101780000895E2E3F0E0208181E090E002C0880F5C
:10179000991F3A95E2F7282720830895282F6AE0B9
:1017A0000E949212392F822F0E9492128230A1F051
:1017B000833018F4813029F406C08330B1F08430CE
:1017C000E9F080E0089589B390E002C0959587958F
:1017D0003A95E2F78170089586B390E002C095953E
:1017E00087953A95E2F78170089583B390E002C03F
:1017F000959587953A95E2F78170089580B390E0CA
:1018000002C0959587953A95E2F781700895282F43
:10181000362F6AE00E949212492F822F0E94921264
:10182000332321F0313009F086C046C08230D1F038
:10183000833020F4813009F07EC006C0833001F18E
:10184000843009F078C02AC0EBE3F0E0208181E029
:1018500090E002C0880F991F4A95E2F78095822395
:1018600080830895E8E3F0E0208181E090E002C009
:10187000880F991F4A95E2F7809582238083089507
:10188000E5E3F0E0208181E090E002C0880F991F3D
:101890004A95E2F78095822380830895E2E3F0E0A1
:1018A000208181E090E002C0880F991F4A95E2F7FD
:1018B00080958223808308958230B9F0833018F4B4
:1018C0008130C9F505C08330E9F08430A1F527C027
:1018D000EBE3F0E0208181E090E002C0880F991FE7
:1018E0004A95E2F7282B20830895E8E3F0E0208171
:1018F00081E090E002C0880F991F4A95E2F7282BFB
:1019000020830895E5E3F0E0208181E090E002C0CB
:10191000880F991F4A95E2F7282B20830895E2E368
:10192000F0E0208181E090E002C0880F991F4A9585
:10193000E2F7282B20830895E7E2F0E080818F779B
:10194000808380818064808380818F7D8083E6E2D4
:10195000F0E08081846080838081826080838081E8
:1019600081608083808180628083808180688083C1
:1019700008958130D1F0813030F0823041F18330F0
:1019800009F048C036C0E7E2F0E080818F7E8083B6
:101990008081877F808380818B7F808380818D7F22
:1019A000808380818E7F808335C0E7E2F0E0808194
:1019B0008F7E80838081877F808380818B7F8083FF
:1019C00080818D7F808380818160808323C0E7E276
:1019D000F0E080818F7E80838081877F808380811B
:1019E0008B7F808380818260808380818E7F8083F3
:1019F00011C0E7E2F0E080818F7E80838081877F65
:101A0000808380818B7F80838081826080838081DE
:101A100081608083E6E2F0E080818064808320E062
:101A200030E040E050E0808184FD0CC02F5F3F4FEC
:101A30004F4F5F4F20308DE2380781E3480781E048
:101A4000580789F724B135B1822F932F08951F933A
:101A5000182F6AE00E949212843009F463C0853026
:101A600050F4813061F18130C8F08230C9F18330A7
:101A700009F0BDC046C0873009F487C0883038F40B
:101A8000853009F460C0863009F0B1C06DC088307F
:101A900009F48CC0893009F0AAC099C08EE060E0DA
:101AA0000E94F10A8FE060E00E94F10A80E160E0AC
:101AB0000E94F10A81E160E00E94F10A98C08EE084
:101AC00061E00E94F10A8FE060E00E94F10A80E18B
:101AD00060E00E94F10A81E160E00E94F10A87C0A3
:101AE0008EE060E00E94F10A8FE061E00E94F10A5E
:101AF00080E160E00E94F10A81E160E00E94F10A69
:101B000076C08EE061E00E94F10A8FE061E00E9401
:101B1000F10A80E160E00E94F10A81E160E00E9448
:101B2000F10A65C08EE060E00E94F10A8FE060E09B
:101B30000E94F10A80E161E00E94F10A81E160E027
:101B40000E94F10A54C08EE061E00E94F10A8FE029
:101B500060E00E94F10A80E161E00E94F10A81E107
:101B600060E00E94F10A43C08EE060E00E94F10A4A
:101B70008FE061E00E94F10A80E161E00E94F10AD9
:101B800081E160E00E94F10A32C08EE061E00E94D3
:101B9000F10A8FE061E00E94F10A80E161E00E94B9
:101BA000F10A81E160E00E94F10A21C08EE060E06C
:101BB0000E94F10A8FE060E00E94F10A80E160E09B
:101BC0000E94F10A81E161E00E94F10A10C08EE0FA
:101BD00061E00E94F10A8FE060E00E94F10A80E17A
:101BE00060E00E94F10A81E161E00E94F10A812F28
:101BF0006AE00E949212943009F463C0953050F468
:101C0000913061F19130C8F09230C9F1933009F010
:101C1000BDC046C0973009F487C0983038F495307D
:101C200009F460C0963009F0B1C06DC0983009F475
:101C30008CC0993009F0AAC099C088E160E00E9488
:101C4000F10A89E160E00E94F10A8AE160E00E9405
:101C5000F10A8BE160E00E94F10A98C088E161E03E
:101C60000E94F10A89E160E00E94F10A8AE160E0E5
:101C70000E94F10A8BE160E00E94F10A87C088E1CE
:101C800060E00E94F10A89E161E00E94F10A8AE1C4
:101C900060E00E94F10A8BE160E00E94F10A76C0E8
:101CA00088E161E00E94F10A89E161E00E94F10AA5
:101CB0008AE160E00E94F10A8BE160E00E94F10A93
:101CC00065C088E160E00E94F10A89E160E00E945D
:101CD000F10A8AE161E00E94F10A8BE160E00E9472
:101CE000F10A54C088E161E00E94F10A89E160E0F4
:101CF0000E94F10A8AE161E00E94F10A8BE160E052
:101D00000E94F10A43C088E160E00E94F10A89E183
:101D100061E00E94F10A8AE161E00E94F10A8BE130
:101D200060E00E94F10A32C088E161E00E94F10A9D
:101D300089E161E00E94F10A8AE161E00E94F10A12
:101D40008BE160E00E94F10A21C088E160E00E941E
:101D5000F10A89E160E00E94F10A8AE160E00E94F4
:101D6000F10A8BE161E00E94F10A10C088E161E0B4
:101D70000E94F10A89E160E00E94F10A8AE160E0D4
:101D80000E94F10A8BE161E00E94F10A1F9108951F
:101D900087E161E00E94F10A28E833E140E951E07F
:101DA000CA010197F1F721503040D1F787E160E097
:101DB0000E94F10A08958EE061E00E945C0A8FE0C3
:101DC00061E00E945C0A80E161E00E945C0A81E1BE
:101DD00061E00E945C0A88E161E00E945C0A89E19E
:101DE00061E00E945C0A8AE161E00E945C0A8BE18A
:101DF00061E00E945C0A87E161E00E945C0A87E181
:101E000060E00E94F10A089581E00E94B90CA0E010
:101E1000B0E0BC01CD0124EF31E040E050E00E9491
:101E200073122FEF33E040E050E00E949E12822FA9
:101E3000932F08950E949C0C0895813049F08130C1
:101E400018F0823061F408C080E20E94860B089589
:101E500085E20E94860B08958BE20E94860B08950E
:101E6000813051F0813018F0823079F40AC080E27C
:101E700060E00E94F10A089585E260E00E94F10AA4
:101E800008958BE260E00E94F10A0895813061F0CC
:101E9000813028F0823069F08330A1F40FC080E2F5
:101EA00061E00E94F10A089585E261E00E94F10A72
:101EB00008958BE261E00E94F10A08958CE061E0F0
:101EC0000E94F10A0895813061F0813028F082305B
:101ED00069F08330A1F40FC080E261E00E945C0AE7
:101EE000089585E261E00E945C0A08958BE261E05A
:101EF0000E945C0A08958CE061E00E945C0A0895EB
:101F00001F93182F682F61708EE00E94F10A612FD5
:101F1000669561708FE00E94F10A612F6695669563
:101F2000617080E10E94F10A169516951695117060
:101F300081E1612F0E94F10A1F910895FF920F9392
:101F40001F93F82E85E160E00E94F10A8F2D8295A3
:101F50008F700E94800F87E161E00E94F10A00EA21
:101F60001FE0C8010197F1F787E160E00E94F10AE4
:101F7000C8010197F1F78F2D0E94800F87E161E082
:101F80000E94F10AC8010197F1F787E160E00E9421
:101F9000F10AC8010197F1F71F910F91FF90089581
:101FA00081E00E949E0F0895DF93CF9300D0CDB7BC
:101FB000DEB790E8998390EC9A83FE01E80FF11D5B
:101FC0008181860F0E949E0F0F900F90CF91DF911D
:101FD0000895FF920F931F93F82E85E161E00E9410
:101FE000F10A8F2D82958F700E94800F87E161E04A
:101FF0000E94F10A00EA1FE0C8010197F1F787E1AA
:1020000060E00E94F10AC8010197F1F78F2D0E944C
:10201000800F87E161E00E94F10AC8010197F1F7A2
:1020200087E160E00E94F10AC8010197F1F71F9172
:102030000F91FF900895AF92BF92CF92DF92EF92EF
:10204000FF920F93DF93CF93CDB7DEB762970FB6B2
:10205000F894DEBF0FBECDBF6B017C0199235CF409
:10206000F094E094D094C094C11CD11CE11CF11CEC
:102070008DE20E94E90F0FEF5E010894A11CB11CD4
:102080000F5F802F992787FD90959501280F391FA5
:102090003A8B298BC701B6012AE030E040E050E0DE
:1020A0000E94C012E989FA896083C701B6012AE05B
:1020B00030E040E050E00E94C012822F932FA42F06
:1020C000B52F6C017D01C114D104E104F104C1F606
:1020D00000238CF07E010894E11CF11C802F9927CD
:1020E00087FD9095F701E80FF91F8081805D0E94C0
:1020F000E90F01509AF762960FB6F894DEBF0FBE53
:10210000CDBFCF91DF910F91FF90EF90DF90CF90F7
:10211000BF90AF9008951F93CF93DF93EC01888118
:10212000882351F010E00E94E90F1F5FFE01E10FCC
:10213000F11D80818823B9F7DF91CF911F91089518
:102140008EE061E00E945C0A8FE061E00E945C0A20
:1021500080E161E00E945C0A81E161E00E945C0A2A
:1021600085E161E00E945C0A87E161E00E945C0A0F
:1021700086E161E00E945C0A86E160E00E94F10A6B
:1021800083E30E949E0F82E30E949E0F88E20E94DA
:102190009E0F8CE00E949E0F81E00E949E0F82E0C5
:1021A0000E949E0F089580E20E94860B089580E2AF
:1021B0000E94CE0B089580E260E00E94F10A08952B
:1021C00080E261E00E94F10A089580E261E00E94ED
:1021D0005C0A089583E20E94CE0B089583E260E0DA
:1021E0000E94F10A089583E261E00E94F10A0895D5
:1021F00083E261E00E945C0A08950F931F93182FF9
:10220000062F0E943C091065812F0E94A70981E0DA
:102210000E94460F802F0E947E090E945709812F3D
:102220000E9469090E949109182F0E944E09812F6E
:102230001F910F910895FF920F931F93182F062F50
:10224000F42E0E943C09812F80650E94A709802FEF
:102250000E947E098F2D0E947E090E944E091F91C7
:102260000F91FF9008950E94340920E137E240E980
:1022700051E0CA010197F1F721503040D1F708959C
:1022800080918001882331F480918101882311F4A9
:1022900010927F010895EEE8F1E020E030E040E0A8
:1022A00050E068E971E08191280F311D411D511DF9
:1022B000E617F707C1F7CA01B9012AE030E040E0AC
:1022C00050E00E949E12842F952F622F732F089545
:1022D000809183018F5F809383018530B1F41092E8
:1022E00083010E94D710813011F40E941D0F1092BB
:1022F000830180917F01813021F487E10E94860B68
:1023000004C087E160E00E94F10A0E94040F982F48
:1023100080937D0180917E018A3011F410927E01BC
:1023200080917E01EEE8F1E0E80FF11D90838F5F70
:1023300080937E0180917F01882319F4892F0E9468
:10234000270D089580917F01882321F481E08093F7
:102350007F0108C081E0809380010E94EE1081E03F
:102360000E94300F82E00E94BB0782E00E9490072B
:10237000089580917F01882321F481E080937F017B
:1023800008C081E0809381010E94DB1081E00E94FF
:10239000300F82E00E94BB0782E00E949007089500
:1023A0000F931F93CF93DF9383E00E94630F81E02D
:1023B0000E94630F0E94DB0E0E94F8100E94E5103D
:1023C00080E00E94C70981E00E94C70980E062EABC
:1023D00071E10E94F50981E069EB71E10E94F50964
:1023E0000E941A0F80E00E94E70680E068E671E133
:1023F0000E94490880E044E650E060E070E00E94FE
:1024000008070E94BB0980E00E94900782E00E94BA
:10241000E70682E060E471E10E94490882E048E852
:1024200053E160E070E00E94080700E21EE4C0E9AA
:10243000D1E080918001813001F580917D018B5F39
:10244000809382018C3438F40E94E01080918201E4
:102450000E94270D10C08BE40E94270D83E00E948C
:10246000460F9801CE010197F1F721503040D1F786
:1024700083E00E94300F10928001809181018130B1
:1024800019F580917D01855080938201833250F04F
:102490000E94F31081E00E94460F809182010E9409
:1024A000270D10C083E20E94270D83E00E94460F93
:1024B0009801CE010197F1F721503040D1F783E028
:1024C0000E94300F1092810190917D0180918201D4
:1024D000981709F0AECF0E94EE1081E00E94300FF5
:1024E0000E94DB10A6CF629FD001739FF001829FF4
:1024F000E00DF11D649FE00DF11D929FF00D839F93
:10250000F00D749FF00D659FF00D9927729FB00D2F
:10251000E11DF91F639FB00DE11DF91FBD01CF0142
:1025200011240895991B79E004C0991F961708F0AB
:10253000961B881F7A95C9F780950895A1E21A2EF7
:10254000AA1BBB1BFD010DC0AA1FBB1FEE1FFF1F57
:10255000A217B307E407F50720F0A21BB30BE40BA7
:10256000F50B661F771F881F991F1A9469F76095EE
:102570007095809590959B01AC01BD01CF010895A8
:1025800097FB092E05260ED057FD04D0D7DF0AD0C1
:10259000001C38F450954095309521953F4F4F4F92
:1025A0005F4F0895F6F790958095709561957F4FF0
:1025B0008F4F9F4F08952F923F924F925F926F924D
:1025C0007F928F929F92AF92BF92CF92DF92EF92C3
:1025D000FF920F931F93CF93DF93CDB7DEB7CA1B44
:1025E000DB0B0FB6F894DEBF0FBECDBF09942A886F
:1025F000398848885F846E847D848C849B84AA8417
:10260000B984C884DF80EE80FD800C811B81AA81A3
:10261000B981CE0FD11D0FB6F894DEBF0FBECDBF6E
:08262000ED010895F894FFCFCD
:102628000000000000000000000102020303030391
:10263800040404040404040405050505050505054A
:10264800050505050505050506060606060606062A
:102658000606060606060606060606060606060612
:1026680006060606060606060707070707070707FA
:1026780007070707070707070707070707070707E2
:1026880007070707070707070707070707070707D2
:1026980007070707070707070707070707070707C2
:1026A80007070707070707070808080808080808AA
:1026B8000808080808080808080808080808080892
:1026C8000808080808080808080808080808080882
:1026D8000808080808080808080808080808080872
:1026E8000808080808080808080808080808080862
:1026F8000808080808080808080808080808080852
:102708000808080808080808080808080808080841
:102718000808080808080808080808080808080831
:08272800080808080808080869
:00000001FF
